:020000040800F2
:10000000101100209D010008A1010008A3010008B3
:10001000A5010008A7010008A901000800000000D0
:10002000000000000000000000000000AB0100081C
:10003000AD01000800000000AF010008B101000898
:10004000B3010008B3010008B3010008B3010008C0
:10005000B3010008B3010008B3010008B3010008B0
:10006000B3010008B3010008B3010008B3010008A0
:10007000B3010008B3010008B3010008B301000890
:10008000B3010008B3010008B3010008B301000880
:10009000B3010008B3010008B3010008D91F00082C
:1000A000B3010008332A0008B3010008B3010008B7
:1000B0008917000871170008B3010008B301000890
:1000C000B3010008B3010008B3010008B301000840
:1000D000B3010008B3010008B30100089518000837
:1000E000B3010008B3010008B301000800F002F8F2
:1000F00000F03FF80AA090E8000C82448344AAF183
:100100000107DA4501D100F034F8AFF2090EBAE880
:100110000F0013F0010F18BFFB1A43F0010318473B
:10012000A0600000C0600000103A24BF78C878C109
:10013000FAD8520724BF30C830C144BF04680C60ED
:10014000704700000023002400250026103A28BF35
:1001500078C1FBD8520728BF30C148BF0B60704739
:10016000642903F0FF81002070471FB51FBD10B543
:1001700010BD03F01FFB1146FFF7F7FF00F02AF850
:1001800003F03DFB03B4FFF7F2FF03BC00F072FA8B
:1001900030BF72B662B680F30888704708480047DF
:1001A000FEE7FEE7FEE7FEE7FEE7FEE7FEE7FEE727
:1001B000FEE7FEE703480449044A054B7047000088
:1001C000ED000008100B002010110020100D002081
:1001D000100D0020092000F0F6F9482000F096F8F4
:1001E000022000F0DBF900F0D5FA00F00FFB00F080
:1001F00097FD01F0CBF901F026FA01F0C7FE00BF30
:1002000000F0B1FB0028FBD14FF4967000F0B5F878
:100210004FF4FA31482000F056FA002141F61F4011
:1002200001F0F4F800F091FE4FF41651242001F093
:10023000BFFA2C480078012804D101F085FC01F0B8
:1002400097FE0CE027480078022802D100F054FF06
:1002500005E024480078032801D100F0EEFF01F00A
:10026000E4FF41F61F41312001F0A2F839E01D48BA
:100270000078012817D1072001F071FD1A490860A4
:10028000082001F06CFD19490860052001F067FDA8
:1002900017490860062001F062FD1649086001F068
:1002A0003BFD1549086015480078012804D101F08C
:1002B000F9FF0020114908701148007820B902F0B8
:1002C0008EFE02F014FD01E002F07EFF01200D49D8
:1002D000087000200C49087000BF0A480078002808
:1002E000FBD1C4E7000000200C000020100000201B
:1002F0001400002018000020640000206C00002082
:100300000100002061000020600000204FF0E0218B
:10031000096921F004014FF0E0221161C21700EBDE
:100320005272C2F3C702224B1A701946097801EBC8
:100330004102C2EBC1114FF6FF7202EAC1011D4A30
:100340001180704701461A4A12784A434FF0E02361
:100350005A6100229A6101221A6100BF4FF0E02227
:10036000106910F0010F02D010F4803FF6D0002287
:100370004FF0E0231A619A61704701460D4A1288D6
:100380004A434FF0E0235A6100229A6101221A6128
:1003900000BF4FF0E022106910F0010F02D010F4FE
:1003A000803FF6D000224FF0E0231A619A61704737
:1003B0008000002082000020A34A0A400243A34B91
:1003C0001A6070470146072323EA010212029F4B7D
:1003D0001B1D18684FF6FF0318409D4B1843104330
:1003E0009A4B1B1D186070472DE9F041074688465F
:1003F00014461D462846FFF7E5FFC5F1040007FA3D
:1004000000F60F20284100EA0800064306F00F0618
:10041000E21704EBD26252114FF0E02303EB8202A9
:10042000D2F800212146E31704EBD3635B11A4EB60
:10043000431C012303FA0CF31A432046E31704EB91
:10044000D3635B114FF0E02C0CEB8303C3F8002166
:100450008048005D40EA06107E490855BDE8F081FD
:1004600070B504460B46CE1701EB9676C6F38700AF
:10047000CE1701EB9676B610A1EB8606B606350EC2
:10048000754B9B6943F00103734EB3614FEAB6337A
:1004900053F820300F26AE40B343704E46F820305C
:1004A000334653F8203004FA05F61E436B4B43F8ED
:1004B00020606B4B1B6801268E403343684E3360CF
:1004C00012F0010F08D0664B0C331B6801268E40DA
:1004D0003343634E0C36336012F0020F08D0604B8A
:1004E00008331E6801238B401E435D4B08331E609A
:1004F00070BD00B5002058490861C86014204861EB
:1005000000208861C8610846006840F0010008606A
:1005100008464068534908404F494860084600680B
:10052000514908404C4908600846006820F4802082
:1005300008600846406820F4FE004860002088609B
:1005400000214FF00060FFF737FF00BD10B53F48B6
:100550000830006840F004003C49083108603E481B
:10056000C06940F080503C49C8614048406840F450
:1005700080703E4948600846006840F0040008600A
:100580000846006840F002000860FFF701FE10BD59
:100590002F48001D2D49091D086070470146490676
:1005A0002D4A926942F001022B4B9A612B4A083A7C
:1005B000526822F0E062294B083B5A601A465268A2
:1005C0000A435A60704730B504460025FFF791FF93
:1005D0002148006840F480301F49086000BF1E4871
:1005E0000068400CFBD04FF480601B494860A01E9F
:1005F000C4B20846406840EA844048600846406803
:1006000040F4803048601A48006840F032001849D1
:1006100008601148006840F080700F49086000BF12
:100620000D480068400EFBD00B48406840F00200C7
:100630000949486005E008484068C0F3870505F0AF
:100640000305022DF7D130BD80FFFF1F08ED00E04C
:100650000000FA0500E400E000100240080001403C
:10066000000401400000FFF8FFFFF6FE00700040AC
:1006700000200240014600BF7047404A12784AB944
:1006800000BF3F4A128812F0400FFAD0C2B23C4B72
:100690001B1D1A80394A1278012A09D100BF394A34
:1006A000128812F0400FFAD0C2B2364B1B1D1A80CE
:1006B00070473449091D088000BF3249098811F08C
:1006C000400FFAD070472DE9F05F05460E46300125
:1006D00004F0BEFD81462C4905FB01F004F0B8FD95
:1006E0008246494604F09EFC0746384604F078FDF1
:1006F00084B2204604F0ACFD8346394604F0EDFE9A
:1007000082464FF0834104F0EBFD814604F068FD22
:1007100080464FF6FF7000EA041404EB080084B230
:100720001A48806940F004001849886108468069C9
:1007300040F4804088611648006820F47F601449C6
:1007400008600846006840F40B6008600F48C06805
:1007500040F480400D49C8600846C06820F48040DD
:10076000C860084808300480001D008842F20C016F
:10077000084304490C310880BDE8F09F01000020C7
:10078000004800400038014040420F000010024085
:10079000040801401848806940F004001649886147
:1007A0001648006820F47F20144908600846006855
:1007B00040F44C30086011480C30006840F01000E4
:1007C0000E490C310860704718B900210C4A1160BD
:1007D00011E00C490968491C0A4A116081420AD19A
:1007E000074909686FEA0101074AC2F890114FF002
:1007F0000001044A116070470010024000080140E7
:100800009001214288000020000021427848806940
:1008100040F00400764988617648006820F4700052
:10082000744908600846006840F400000860714898
:100830000C30006840F020006E490C3108607047B1
:1008400001466D48006828B96C480088401C6B4A16
:10085000108002E00020694A10806748006828B9CB
:100860006748007810B90120654A10706548007823
:10087000B0B963480078012807D163480078401C6C
:10088000614A107001205F4A10705F4800780228AA
:1008900006D100205C4A10705C4A1080022070472C
:1008A00055480068012804D10020554A1070554A67
:1008B00010705548007801281CD154480088401C0D
:1008C000524A10801046008888420ADD4B48008852
:1008D000884206DA00204C4A10704C4A10800120F1
:1008E000DDE746480088884204DD0020464A107053
:1008F000464A10800020D2E74548007838B13E488B
:10090000006820B9002042490870012070473A4829
:100910000068012801D13E4908700020F6E73D48F3
:10092000008840B93448006828B93B480088401C1A
:100930003949088002E0002037490880364800889D
:10094000C82807DD0120334908800020324908808B
:10095000012070472F480088012802D100202D492E
:1009600008800020F5E770B54FF4827502F063FC53
:100970002A49098808B2002801DB014600E041420B
:10098000274A116010460468AC4203DC0020254968
:10099000087021E0AC4206DD6800A04203DB0120C4
:1009A0002049087018E06800A04207DA05EB45000E
:1009B000A04203DB02201B4908700DE005EB450057
:1009C000A04206DAA800A04203DB03201549087004
:1009D00002E000201149088013480078012804D162
:1009E00000F091F80020114908701048007870BD9F
:1009F0000010024000080140140121429200002032
:100A00008C0000208D0000208E000020900000202F
:100A1000940000209800002096000020240400404C
:100A200030000020000000201D0000209A0000205F
:100A300010B50A461AB10123FE4C236002E00023E0
:100A4000FC4C23604FF0000118E00023FA4C2360B7
:100A500010F0800F04D00123A4F10404236002E00D
:100A60000023F64C23604FF00103F34C23604FEA60
:100A700040634FEA136001F10103D9B20829E4DBB6
:100A80000123EC4C236010BD30B500241CE004F1C0
:100A9000B001C8B20021FFF7CBFF00210846FFF7E5
:100AA000C7FF00211020FFF7C3FF002508E0E4493D
:100AB00001EBC501085D0121FFF7BAFF681CC5B253
:100AC000802DF4DB601CC4B2082CE0DB30BD00B527
:100AD00000218D20FFF7ACFF00211420FFF7A8FFB5
:100AE0000021AF20FFF7A4FF00BD00B500218D203D
:100AF000FFF79EFF00211020FFF79AFF0021AE2094
:100B0000FFF796FF00BD30B500240CE0002506E09D
:100B10000020CB4901EBC5010855681CC5B2802DEA
:100B2000F6DB601CC4B2082CF0DBFFF7ADFF30BD74
:100B3000F0B5144600267F2801DC3F2900DDF0BD1A
:100B40000B46CF1701EB5777FF10C7F10707FAB233
:100B5000CF1701EB5777FF10A1EBC707FDB2C5F127
:100B600007070123BB40DEB24CB1B54B03EBC0031A
:100B70009B5C3343B24F07EBC007BB5408E0B04B5C
:100B800003EBC0039B5CB343AD4F07EBC007BB5403
:100B900000BFD4E72DE9F04F80460C4615461E46AF
:100BA000A346A5F12000C5B200273EE00C2E07D1D8
:100BB00005EB4500A34901EB800010F8079004E025
:100BC000A14800EB051010F807904FF0000A26E04E
:100BD00019F0800F05D021464046099AFFF7A8FF7B
:100BE00009E0099808B9012000E0002002462146EA
:100BF0004046FFF79DFF4FEA49604FEA1069601CCD
:100C0000C4B2A4EB0B00B04205D15C4608F1010070
:100C100000F0FF0806E00AF1010000F0FF0ABAF157
:100C2000080FD5DB00BF781CC7B2B742BEDBBDE8FA
:100C3000F08F10B50246012000E050430B00A1F1F7
:100C40000104E1B2F9D110BD2DE9FF4F81B0074693
:100C500091461E460E9D4FF0000A002439E0301BDD
:100C6000401EC1B20A20FFF7E4FFB9FBF0F00A21F1
:100C7000B0FBF1F201FB1208BAF1000F16D1701EA1
:100C8000A04213DDB8F1000F0ED10120AB4605EBF9
:100C9000DB71491001FB04710090C8B22B46202281
:100CA0000299FFF777FF12E04FF0010A0120AB46EF
:100CB00005EBDB71491001FB04710090C8B208F12B
:100CC0003001CAB22B460299FFF764FF00BF601CD7
:100CD000C4B2B442C3DB05B0BDE8F08F78B50546B9
:100CE0000E46144618E07A2D03DD002506F11000AB
:100CF000C6B23A2E04DD002005460646FFF703FF84
:100D00000120009022780C2331462846FFF742FF4D
:100D100005F10800C5B2641C20780028E3D178BD35
:100D200010B54A48806940F0080048498861484841
:100D30000068484908404649086008460068464936
:100D40000843434908604148806940F004003F4936
:100D500088614248006820F07040404908600846B9
:100D6000006840F00050086000203D4908604FF0E6
:100D70006400FFF702FB01203A49C1F88C01002111
:100D8000AE20FFF755FE0021D520FFF751FE0021D0
:100D90005020FFF74DFE0021A820FFF749FE00215B
:100DA0003F20FFF745FE0021D320FFF741FE002141
:100DB0000846FFF73DFE00214020FFF739FE0021E5
:100DC0008D20FFF735FE00211420FFF731FE0021B2
:100DD0002020FFF72DFE00210220FFF729FE002131
:100DE000A120FFF725FE0021C020FFF721FE0021F2
:100DF000DA20FFF71DFE00211220FFF719FE002167
:100E00008120FFF715FE0021EF20FFF711FE0021E2
:100E1000D920FFF70DFE0021F120FFF709FE002188
:100E2000DB20FFF705FE00213020FFF701FE002147
:100E3000A42019E0BC0121429481214290812142E9
:100E400044020020CA5600083E5B00080010024021
:100E5000000C0140FF0F00FF0020220004080140A9
:100E60008C81214200802142FFF7E2FD0021A62073
:100E7000FFF7DEFD0021AF20FFF7DAFDFFF743FEAD
:100E800010BD0000002000E0401C0A28FCDB704779
:100E90000146FE48006820F01F00FC4A1060104622
:100EA000006808431060F9482C38006840F480005E
:100EB000F64A2C3A106000BFF4483438006810F04D
:100EC000020FF9D0F1481830006880B2704710B5B1
:100ED000002300240120EE4908604FF00000ED4996
:100EE000C1F88C01FFF7CEFF0120EB4908604FF0FD
:100EF0000000E849C1F88801FFF7C4FF0120E44978
:100F000008604FF00000E349C1F88C01FFF7BAFF19
:100F1000002317E00020DE490860FFF7B3FFFFF76A
:100F2000B1FF0820FFF7B4FF0011DC4921F81400DD
:100F3000601CC4B20120D749C1F88801FFF7A2FFA5
:100F4000581CC3B2802BE5DB10BDD548806940F04A
:100F50000800D3498861D348006820F00F00D149C8
:100F60000860CF48806940F40070CD498861084628
:100F7000C06840F40070C8600846C06820F4007083
:100F8000C8600846406820F4404048600846406811
:100F900040F400404860BD4830380068C24908400D
:100FA000BA49303908600846006808600846006899
:100FB00020F480700860081D006820F00200091D00
:100FC00008600846006820F4602008600846006851
:100FD00040F4602008600846006840F48010086013
:100FE0000846006820F400600860A84808380068D7
:100FF00020F47000A5490839086008460068002000
:101000000860A2482438006820F0F0009F49243985
:1010100008600846006840F0380008609B482C389B
:10102000006840F0010099492C39086008460068C2
:1010300040F00800086000BF94482C38006810F0A9
:10104000080FF9D191482C38006840F004008F490E
:101050002C39086000BF8D482C38006810F0040F50
:10106000F9D170472DE9F04F85B00920FFF710FF47
:10107000019003F0DDFB4FF066328C4BCDE90201AD
:1010800003F026FC80460022894B03F021FC064633
:101090000022884B03F01CFC04460022864B03F020
:1010A00029FA824603F07EFB0490049805B0BDE85F
:1010B000F08F70B5FF20FFF7FCFA002519E0FFF76D
:1010C00006FF002400BF11E0744830F81400FF2828
:1010D00006D1724830F81400401E704921F81400FF
:1010E0006E4911F81400FFF7E4FA641C802CEBDB66
:1010F0006D1C642DE3DB70BD10B56948806940F05C
:101100000400674988610846806940F008008861EA
:101110006448006820F00F00624908606748006872
:1011200020F47F40654908600846006840F4085094
:1011300008605B48806940F400705949886108463E
:10114000C06840F40070C8600846C06820F40070B1
:10115000C8600846406820F440404860084640683F
:1011600040F4004048604948303800684E49084023
:10117000464930390860084600680860084600683B
:1011800020F480700860081D006820F00200091D2E
:1011900008600846006820F460200860084600687F
:1011A00040F4602008600846006840F48010086041
:1011B0000846006820F40060086034480838006879
:1011C00020F47000314908390860084600680020A2
:1011D00008602E482438006820F070602B492439BC
:1011E00008600846006840F0E060086027482C3836
:1011F000006840F0010025492C3908600846006865
:1012000040F00800086000BF20482C38006810F04B
:10121000080FF9D11D482C38006840F004001B4924
:101220002C39086000BF19482C38006810F0040FF2
:10123000F9D10120FFF7A1F810BD10B51848806959
:1012400040F00400164988610846806940F00800B3
:1012500088611448006820F00F00124908601748A0
:10126000006820F47F40154908600D48806940F40B
:1012700000700B4988610846C06840F40070C8607F
:101280000846C06820F40070C86019E034240140AA
:1012900088012142000021428C0121421C010020D2
:1012A00000100240000C0140FFFFF00066660A409B
:1012B00000002640000059400000B04000080140F6
:1012C0000846406820F4404048600846406840F4C2
:1012D000004048603348006833490840314908609D
:1012E0000846006808600846006820F480700860BE
:1012F000081D006820F00200091D0860084600680B
:1013000020F4602008600846006840F4602008600F
:101310000846006840F4801008600846006820F421
:10132000006008601F482830006820F470001D49E4
:1013300028310860084600680020086019480C3011
:1013400000681A49084017490C31086008460068CF
:1013500040F0E06008601348001D006840F00100A4
:101360001049091D08600846006840F00800086040
:1013700000BF0C48001D006810F0080FF9D10948A3
:10138000001D006840F004000649091D086000BF08
:101390000448001D006810F0040FF9D10120FEF789
:1013A000ECFF10BD04240140FFFFF000FF00FFF040
:1013B00070B505460C461348806940F40060114939
:1013C000886111480580001F04800F48203800887C
:1013D00040F001000C49203908800846008840F0A0
:1013E0004000088008482C38008840F00100064979
:1013F0002C3908800223192203210120FEF7F4FF73
:1014000070BD0000001002402C2C01405A4AD269E5
:1014100042F00402584BDA611A46926942F008021F
:101420009A61564A126822F07F42544B1A601A465B
:10143000126842F03B421A601A1D126822F0FF0245
:101440001B1D1A601A46126842F0BB021A604C4A11
:101450001080121F11804A4A143A128842F060022A
:10146000474B143B1A801A46128842F4C0421A8035
:101470001A1D128842F060021B1D1A801A4612883B
:1014800042F4C0421A801A1F128842F008021B1F41
:101490001A801A46128842F400621A801A1D1288B5
:1014A00042F008021B1D1A801A46128842F400629C
:1014B0001A801A1D128842F001021B1D1A801A465A
:1014C000128842F010021A801A46128842F4807282
:1014D0001A801A46128842F480521A808022284BC1
:1014E0002C3B1A801A46128842F001021A8070477B
:1014F000214A926942F400621F4B9A611A4692692E
:1015000042F004029A611F4A126822F470421D4B95
:101510001A601A46126842F430421A601A4A108061
:10152000121F1180184A103A128842F4C042164B1A
:10153000103B1A801A46128842F400621A801A1D63
:10154000128842F480521B1D1A800F4A18321288EA
:1015500042F400420C4B18331A8080220A4B2C3B79
:101560001A801A46128842F001021A8040F2EE22D6
:10157000054B14331A80704700100240000C0140E4
:101580002C080040040801402C2C014010B5844870
:10159000C06940F001008249C8610846806940F096
:1015A000040088617F48006820F0FF007D490860E2
:1015B0000846006840F044000860C804808940F094
:1015C0000100C90488810846808940F04000888174
:1015D00001231C2203211846FEF706FF00204FF0CE
:1015E000804108854FF6FF7088850846008820F402
:1015F000407008800846008820F060000880084697
:10160000008B40F0010008830846008B40F4807096
:1016100008830846008C20F0020008840846008CED
:1016200020F0200008840846008B40F0300008833A
:101630000846008940F0030008810846008840F011
:101640000100088010BD10B55548C06940F0020087
:101650005349C8610846806940F0040088615148D8
:10166000006820F07F404F4908600846006840F05D
:10167000884008604C48008840F001004A490880D2
:101680000846008840F04000088001231D22032105
:101690001846FEF7A9FE002043491C3108804FF68A
:1016A000FF70091D088040480C38008820F4407005
:1016B0003D490C3908800846008820F06000088009
:1016C00039480C30008840F0010037490C3108805F
:1016D0000846008840F48070088033481430008841
:1016E00020F002003049143108800846008820F0BC
:1016F000200008802C480C30008840F030002A4937
:101700000C3108802848001F008840F0030026495B
:10171000091F088024480C38008840F00100224945
:101720000C39088010BD0146022904D003290BD0D2
:10173000042919D111E04FF08042928C10B200229E
:101740004FF080439A8411E0174A1832128810B281
:101750000022154B18331A8008E0144A128810B280
:101760000022124B1A8001E0002000BF00BF70472A
:101770000D48001D00880C48001D008820F0010065
:101780000949091D088070474FF08040008A4FF0DA
:101790008040008A20F001004FF0804108827047AD
:1017A00000100240000801400C04004024080040E2
:1017B0002DE9F05F05460E46300103F049FD8146F4
:1017C000CB4905FB01F003F043FD8246494603F097
:1017D00029FC0746384603F003FD84B2204603F097
:1017E00037FD8346394603F078FE82464FF0834149
:1017F00003F076FD814603F0F3FC80464FF6FF7060
:1018000000EA041404EB080084B2BA48806940F08E
:101810000800B84988610846C06940F48020C86162
:10182000B548006820F47F40B34908600846006866
:1018300040F40B400860B0480830006840F4806015
:10184000AD4908310860AB48006940F48020A949DF
:1018500008610846006920F480200861A7480480D8
:10186000001D008842F20C010843A449091D0880AC
:101870000846008840F4807008800846008840F0E0
:10188000200008800223272200210846FEF7ACFD35
:10189000BDE8F09F2DE9FF5F98480838008810F0F8
:1018A000200F7DD09548001F008895490870084694
:1018B00000789449087092480078412809DB9048E4
:1018C0000078482805DC8E48007840388E4908604A
:1018D0000FE08B4800780A2804DA894800788A49A2
:1018E000086006E0864800785A2802D10020864920
:1018F0000860834800787B2802D101208349087062
:101900007F4800787D2802D10220804908707F48F6
:10191000007801280AD17A4800787D497D4A1278FA
:1019200088547C480078401C7A49087077480078D1
:10193000022835D17648C078502803D10120764955
:101940000870C2E07248C078572803D1012073495B
:101950000870BAE06E4840782328F2D06D490978C3
:10196000491E6B4A515C30396A4A1278921E684BA4
:101970009A5C303A02EB820201EB420003F050FC29
:101980006749086063480078C01E6149085C2D28DB
:1019900005D16348006880F000406149086000E0BC
:1019A000A4E05C490978091F594A515C3039594A09
:1019B0001278521F564B9A5C303A02EB820201EBCE
:1019C000420003F02DFC5749086052480078801F00
:1019D0004F49085C2D2805D15248006880F000402E
:1019E000504908604B4800784F49087034E0494935
:1019F00009784D4A1278881A02F003FF8046424661
:101A00000B460020494901F071FF06460F46464942
:101A10000978491E3E4A515CA1F1300002F0F1FE06
:101A200032463B46CDE9000102F052FF04460D4626
:101A30003F48006803F05CFA824622462B4602F0DB
:101A40009DFCCDE9020102F067FC39490860364887
:101A50000078401E34490870334800780428C6DAFC
:101A60002B484078303809282ED2DFE800F00511E5
:101A7000161B28292A2B2C004FF081412C48006886
:101A800003F0D0FA044603F0ABFB2A4908701BE0D0
:101A9000274800682849086016E02548006827495B
:101AA000086011E01F48006803F07EFB24490860CD
:101AB0001B48006803F078FB2249086004E003E05B
:101AC00002E001E000E000BF00BF00200F49087005
:101AD00010490870144908701549086011490860D8
:101AE0000F49086032210A4801F078FDBDE8FF9FE8
:101AF00040420F0000100240040C01400848004022
:101B0000AC000020680000202C0000209C00002079
:101B1000440600209D0000206B0000206C00002087
:101B2000A8000020A40000209E0000200000244007
:101B3000A00000201C00002004000020080000205D
:101B40005000002054000020FB48806940F0040051
:101B5000F94988610846806940F0080088610846B4
:101B6000806940F010008861F448006820F470201B
:101B7000F24908600846006840F440300860F048C8
:101B8000006820F07F40EE4908600846006840F099
:101B90004C500860EB48406820F47000E949486008
:101BA0000846406840F400004860704738B5044675
:101BB000012000900020E4494870012000902FE0AF
:101BC000BDF80000204203D00120E049086002E097
:101BD0000020DE4908604FF00100DD4908604FF049
:101BE0000500FEF7AFFB0020DA49C1F8B00105207F
:101BF000FEF7A8FB0120D749C1F8B001D648D0F8BC
:101C0000340130B1D0484078BDF800100843CE49C7
:101C10004870BDF800004FF6FF7101EA40000090E7
:101C2000BDF80000FF28CBDD1020FEF78BFB38BD90
:101C300010B50020C9490860C9490878FFF7B6FF08
:101C4000C7494878FFF7B2FF0120C649C1F8BC0177
:101C5000BD484078732801D1002010BD0120FCE769
:101C60001CB500200190012000900020BB490860B5
:101C7000BB490878FFF79AFFB9494878FFF796FF04
:101C80000220019036E00120009027E00120B049B9
:101C900008604FF00500FEF755FB0020AD49C1F884
:101CA000B0010520FEF74EFB0120AA49C1F8B001A2
:101CB000A948D0F8340150B1A3489DF80410405C05
:101CC000BDF800100843A0499DF804208854BDF8D1
:101CD00000004FF6FF7101EA40000090BDF80000DF
:101CE000FF28D3DD1020FEF72DFB9DF80400401CDB
:101CF000C0B201909DF804000928C4DB0120974977
:101D000008601CBD002004E000218F4A1154411CD2
:101D1000C8B20928F8DB704710B5FFF7F3FFFFF7EB
:101D20009FFF8948C0788849097940EA01208E4997
:101D3000088000240FE08D4810F81400401E012197
:101D400001FA00F088490988084202D1601CC0B23B
:101D500010BD601CC4B2102CEDDB0020F8E701467A
:101D60007948405C704770B505460C4600207B49B9
:101D700008604FF01000FEF7E5FA0120FFF716FFAC
:101D80004220FFF713FF0020FFF710FF2846FFF760
:101D90000DFF2046FFF70AFF0020FFF707FF002096
:101DA000FFF704FF0020FFF701FF0020FFF7FEFE12
:101DB00001206C49C1F8BC011020FEF7C3FA70BDC8
:101DC00010B50020654908604FF01000FEF7BAFA20
:101DD0000120FFF7EBFE4220FFF7E8FE0020FFF7AF
:101DE000E5FE0020FFF7E2FE0020FFF7DFFE012006
:101DF0005C49C1F8BC011020FEF7A4FA10BD10B573
:101E00000020564908604FF01000FEF79BFA0120B1
:101E1000FFF7CCFE4320FFF7C9FE0020FFF7C6FE08
:101E20000120FFF7C3FE0020FFF7C0FE0020FFF7F0
:101E3000BDFE0020FFF7BAFE0020FFF7B7FE00202E
:101E4000FFF7B4FE01204749C1F8BC011020FEF79E
:101E500079FA10BD10B50020404908604FF001002C
:101E6000FFF7A4FE4420FFF7A1FE0020FFF79EFE2F
:101E70000120FFF79BFE0320FFF798FE0020FFF7ED
:101E800095FE0020FFF792FE0020FFF78FFE002056
:101E9000FFF78CFE01203349C1F8BC011020FEF78A
:101EA00051FA10BD10B500202C4908604FF0100009
:101EB000FEF748FA0120FFF779FE4D20FFF776FE86
:101EC0000020FFF773FE0020FFF770FE0120FFF7F0
:101ED0006DFE01202349C1F8BC011020FEF732FA43
:101EE00010BD10B500201D4908604FF01000FEF72E
:101EF00029FA0120FFF75AFE4320FFF757FE002082
:101F0000FFF754FE0020FFF751FE5A20FFF74EFE68
:101F10005A20FFF74BFE5A20FFF748FE5A20FFF7E2
:101F200045FE5A20FFF742FE01200E49C1F8BC01D0
:101F30001020FEF707FA10BD00100240040801400F
:101F4000040C01400010014076060020B8812142B7
:101F5000B00121420000214200002242BC81214206
:101F6000AE00002000802142D0000020B000002000
:101F700010B5FFF725FFFFF723FFFFF721FFFFF75E
:101F80003EFFFFF767FFFFF7ACFF10BD10B5174826
:101F9000806940F00400154988611548006820F404
:101FA0007020134908600846006840F4002008606B
:101FB0000F480830006840F480500D49083108602F
:101FC000012205210020FEF74BFA022317220121EE
:101FD0001846FEF709FA10BD0648006828B9202007
:101FE000054908600120054908707047001002404B
:101FF0000408014014012142140401401D00002086
:10200000B348B4494860B44848607047B148006973
:1020100040F08000AF4908617047AE48C16811F0D8
:10202000010F01D00120704711F0040F01D00220F0
:10203000F9E711F0100F01D00320F4E70020F2E7D8
:1020400070B5044600BFFFF7E8FF0546012D00D03C
:1020500006E00120FEF776F9601E84B2002CF2D172
:1020600000BF04B9FF25284670BD70B505460024A1
:1020700045F6FF70FFF7E4FF0446C4B995480069D0
:1020800040F002009349086108464561006940F04C
:102090004000086145F6FF70FFF7D2FF0446012CAF
:1020A00005D08C48006920F002008A49086120466A
:1020B00070BD70B505460E46FF20FFF7C1FF044610
:1020C00094B98448006940F00100824908612E807B
:1020D000FF20FFF7B5FF0446012C05D07D480069BD
:1020E00020F001007B490861204670BD0146088848
:1020F00070472DE9F04105460E461746002407E0DB
:1021000036F814102846FFF7D4FFAD1C601C84B2CB
:10211000BC42F5DBBDE8F08130B503460C46154600
:10212000002207E01846FFF7E1FF24F812009B1C8D
:10213000501C82B2AA42F5DB30BD2DE9F05F80462B
:102140008A461746B8F1006F02D36448804501D330
:10215000BDE8F09FFFF754FFA8F1006B4FEA9B2505
:10216000CBF34809C9F50074A74200DC3C464EE0B9
:102170004FF0006101EB85208A145949FFF7CCFF2D
:1021800000260BE009EB0600554931F81000A0F5D8
:102190007F41FF3900D003E0701C86B2A642F1DB1C
:1021A00000BFA6421BDA4FF0006101EB8520FFF76C
:1021B0005CFF002608E03AF8160006EB0901484AE1
:1021C00022F81100701C86B2A642F4DB4FF00061C9
:1021D00001EB85208A144249FFF78BFF04E0224679
:1021E00051464046FFF785FFA74200D110E06D1C25
:1021F0004FF000090AEB440A08EB4408381B87B289
:10220000B7F5007F02DD4FF4007400E03C46AFE715
:1022100000BFFFF7FBFE00BF9AE713B5044601229B
:1022200001A92046FFF789FF1CBD10B50A222D49E0
:102230002D48FFF771FF2B480088A0F57F41FF393B
:102240001AD128484088A0F57F41FF3914D125488C
:102250008088A0F57F41FF390ED12248C088A0F5C3
:102260007F41FF3908D11E202049087020482149AC
:1022700008602149086014E01A49088802F0E8FF64
:10228000044602F0ADFF194908701649488802F06B
:10229000DFFF184908601349888802F0D9FF164902
:1022A000086010BD10B51148007814490880114825
:1022B000006802F095FF114948800F48006802F05D
:1022C0008FFF0E4988800A220748FFF736FF10BDAE
:1022D0002301674500200240AB89EFCD00000108D3
:1022E000800600201C02002000E000081C000020E6
:1022F00000004041040000200800002030020020BF
:10230000704710B5FE4B1B78022B05DB002800DA66
:102310000020002900DA0021002808DA4FF4E153F8
:10232000F84C238000F5E153241D238008E04FF48E
:10233000E153F44C241D2380C0F5E153241F238076
:10234000002909DA4FF4E153EE4C0834238001F5FB
:10235000E153241D238008E04FF4E153E94C0C3491
:102360002380C1F5E153241F238010BD41F6F420E2
:10237000E54909684242914202DA4142E24A11606B
:10238000E1490968814201DDDF490860DF490968E8
:102390004242914202DA4142DC4A1160DB4909685B
:1023A000814201DDD949086070472DE9F05F04469C
:1023B0000D46281BD64908600846006802F030FF29
:1023C0008346D4480168584602F08AFF8046D049C7
:1023D0000968D14A1268881A02F022FF8346CF4862
:1023E0000168584602F07CFF8146414602F0ACFD90
:1023F0000746CB48006802F013FF8246394602F0D8
:10240000A3FD064602F0D0FEC5490860C04800683A
:10241000C1490860C2480068BDE8F09F2DE9F05F3F
:1024200004460D46281BBF4908600846006802F0B4
:10243000F7FE8346B7480168584602F051FF8046D0
:10244000B8490968B84A1268881A02F0E9FE83465A
:10245000B2480168584602F043FF8146414602F007
:1024600073FD0746B148006802F0DAFE824639463D
:1024700002F06AFD064602F097FEAC490860A948E2
:102480000068A9490860A9480068BDE8F09F0146B6
:10249000B1F5397F03DBA64A1278012A01D1012068
:1024A00000E0002070472DE9F04F8BB0022009902A
:1024B00093480078002876D19E48006828B900200B
:1024C0009D4908609D49086086E19A480068012896
:1024D00009D19B48007802F0BBFE974908600020B4
:1024E0009649086078E193480068022809D1944829
:1024F000007802F0ADFE9049086092488F4908606C
:102500006AE18C480068032806D100208A490860E7
:102510008C488A4908605FE18648006804280AD12F
:1025200087480078404202F07BFE83490860864875
:102530008249086050E17F48006805280AD1804838
:102540000078404202F06CFE7B49086000207B4925
:10255000086041E17748006806280AD17848007889
:10256000404202F05DFE7449086076487349086095
:1025700032E170480068072806D100206E490860E3
:1025800071486E49086027E16A48006808289BD1B5
:102590006B48007802F05CFE674908606A4867494A
:1025A000086019E1FFE756480078012845D16749DE
:1025B0000968A1F1800002F033FE089064490968BF
:1025C000A1F1800002F02CFE07900998404202F031
:1025D00027FE0446089902F04FFE09D2099802F03E
:1025E0001FFE0446089902F047FF01D20020089020
:1025F0000998404202F014FE0446079902F03CFE9E
:1026000009D2099802F00CFE0446079902F034FF43
:1026100001D200200790089880F000444FF08041DC
:10262000204602F0FFFC444908604FF081410798C2
:1026300002F0F8FC41490860CEE0314800780228F9
:1026400032D144483C49086043490978A1F140002F
:1026500002F0E6FD41490860414801683F480068D2
:1026600002F046FF07464FF07E5102F039FE064663
:1026700002F03EFC04460D463848006802F038FC83
:102680000646384A384B02F023F9804622462B464C
:1026900001F074FE824601F03FFE284908602F4891
:1026A00000682F49086097E015480078032865D135
:1026B0002848214908602D490968C1F1640002F0E9
:1026C000AFFD26490860264801682448006802F0EA
:1026D0000FFF8146264902F003FE804602F008FC07
:1026E000CDE904011D48006802F002FC8046214A41
:1026F000214B02F0EDF8CDE90201184800683EE0F8
:102700000000002034080040440000204800002061
:10271000E000002008000020E80000200400002065
:10272000E4000020D4000020DC000020D8000020BD
:10273000020000202C000020340000203C0000207B
:102740001C00002000002041000020C110000020DB
:10275000140000200000344269000020EC0000203A
:10276000F00000209A9999999999C93F7C0000201E
:10277000000040407B14AE47E17A943F2CE002F029
:1027800013FD0690002801DB069901E006994942F5
:10279000084602F045FD0090FE480168009802F0EE
:1027A0009FFD019002F0A4FB8046FB4AFB4B02F028
:1027B0008FF88246DDE9022301F0E0FD0646DDE9FF
:1027C000042301F0DBFD044601F0A6FDF449086096
:1027D000F0480068F34908600BB0BDE8F08F01468F
:1027E000002901DA484200E00846704700B5EE488B
:1027F0000088EE4908800520ED49088014E0EA4889
:10280000EB49098830F81100E8490988884206DB5D
:10281000E548E749098830F81100E4490880E448B0
:102820000088401CE2490880E14800887B28E6DBFC
:10283000DD480088DF4908800520DD49088014E074
:10284000D948DB49098830F81100DA4909888842FB
:1028500006DCD548D649098830F81100D5490880EA
:10286000D3480088401CD2490880D14800887B2882
:10287000E6DBCE490988CF4A1288881800EBD07170
:10288000C1F34701CC4A11700520C949088044E0D2
:10289000C548C749098830F81100C74909788842F6
:1028A00036DDC149C2480088401C31F81000C249D9
:1028B000097888422CDDBC49BD480088801C31F86D
:1028C0001000BD490978884222DDB749B848008820
:1028D000C01C31F81000B8490978884218DAB249AA
:1028E000B3480088001D31F81000B34909788842C8
:1028F0000EDAAD49AE480088401D31F81000AE49EF
:102900000978884204DAAA480088AC49088008E0BF
:10291000A7480088401CA6490880A548008876285A
:10292000B6DB00BF7620A649088044E09E48A44953
:10293000098830F81100A0490978884236DA9A49A6
:102940009F480088401C31F810009B490978884254
:102950002CDA95499A480088801C31F81000964975
:102960000978884222DA904995480088C01C31F8DD
:10297000100091490978884218DD8B4990480088F9
:10298000001D31F810008C49097888420EDD864917
:102990008B480088401D31F810008749097888422B
:1029A00004DD874800888749088008E0844800885B
:1029B000401E83490880824800880528B6DC00BF95
:1029C000804909887D4A1288881800EBD071C1F3CC
:1029D00047017D4A1170114609787C4A1288881A8D
:1029E000FFF7FDFE5A2803DD784800787649087025
:1029F000754800787549088000BD70B5FDF77CFF0B
:102A00000546012D07D17248007808B9012000E081
:102A100000206F490870FDF782FF0446012C07D1A2
:102A20006C48007808B9012000E00020694908706E
:102A300070BD10B56848008810F0010F7ED0664860
:102A4000008820F00100644908806448007808B9D3
:102A5000012000E0002061490870614800780128E9
:102A60000BD160480078401CC0B25E4908700A284B
:102A700003D1002008705A4908705848007801288E
:102A800039D1FFF7BAFF58480078022803D1FEF782
:102A90001EFAFFF7ABFE5448007803282BD1FEF74F
:102AA000F7F9524908600820FEF7F2F9504908602A
:102AB0000220FEF7EDF94F4908604C4800680968AC
:102AC00001EBC10202EB011100EB810148480068F3
:102AD000C72200FB02104849086044480068454985
:102AE000096808444249096808444349096891FB58
:102AF000F0F04249086039480078002848D10220A7
:102B0000FEF711FE3E4908600320FEF70CFE40422E
:102B10003C490860FFF7C7FC214801683A48006853
:102B2000FFF7EEFB39480068FFF7B1FCE0B9384821
:102B3000016833480068FFF771FC00E099E035490F
:102B40000860354801682F480068FFF72EFC3349BC
:102B50000860FFF70BFC32480268304801682D48D6
:102B60000068FFF7CEFB05E040F2EE2200210846A8
:102B7000FFF7C7FBFEF776FA2A4908602A48006883
:102B8000401C2949086029480068264909684FE027
:102B900061E00000EC000020FCA9F1D24D62803F12
:102BA0003C000020F00000201C010020FE0000205E
:102BB000F4000020000100206A000020F80000203E
:102BC000F6000020FA00002069000020FC00002030
:102BD0000200002001000020102C01400201002012
:102BE0006100002060000020000000207000002034
:102BF0007800002074000020100100207C000020DC
:102C00002000002024000020340000205800002074
:102C10005000002044000020540000204800002004
:102C20004C00002004010020080100200C010020BD
:102C30000844104908601048006864280BD1084611
:102C40000068642190FBF1F00C49086000200949FC
:102C50000860094908600A48007818B96420FDF73F
:102C6000B3FD06E006480078012802D10020FDF7F8
:102C7000ABFD10BD0C010020080100205800002011
:102C8000010000202DE9F04106460D4617460024BC
:102C90003A4629463046FDF74BFF3A46294630462C
:102CA000FDF746FF00BF07E02819C1B23A4630469B
:102CB000FDF73EFF601CC4B2082CF5DBBDE8F081D7
:102CC00070B5002410E0F24830F81400F14909789A
:102CD000884201DA012500E000252A46002120462D
:102CE000FFF7D0FF601CC4B2802CECDB70BD38B5A0
:102CF000E9480078E0B9E9A200210846FDF7EEFFB7
:102D00000C2003230090E748027800212D20FDF7D6
:102D10009BFFE5A20A210020FDF7E0FF0C20032322
:102D20000090E24802780A211E20FDF78DFF8DE019
:102D3000D948007801282AD1DDA200210846FDF7F4
:102D4000CDFF0C2003230090DA48002102680F20F9
:102D5000FDF77AFFD4A200212820FDF7BFFF0C2049
:102D600003230090D448002102683720FDF76CFF50
:102D7000D2A20A210020FDF7B1FF0C20022300900F
:102D8000CF480A2102681920FDF75EFF5EE0C248C5
:102D9000007802281ED1FFF793FFCAA20A21002063
:102DA000FDF79CFF0C2003230090C74802780A21FE
:102DB0002320FDF749FFC5A20A214620FDF78EFF1B
:102DC0000C2003230090B34802780A215F20FDF70E
:102DD0003BFF3BE0B0480078032837D1BCA200217C
:102DE0000846FDF77BFF0C2004230090B948002122
:102DF00002680A20FDF728FFB7A200212820FDF76E
:102E00006DFF0C2004230090B4480021026832209A
:102E1000FDF71AFFB2A200215020FDF75FFF0C2042
:102E200004230090AF48002102685A20FDF70CFFF0
:102E3000A4A20A210020FDF751FF0C2004230090DA
:102E4000A9480A2102681420FDF7FEFEA7A214215A
:102E50000020FDF743FFA848006800280FDAA7A26A
:102E600014215020FDF73AFF0C2005230090A248C2
:102E70000068424214215F20FDF7E6FE0DE0A0A2AB
:102E800014215020FDF72AFF0C20052300909A48BA
:102E9000142102685F20FDF7D7FE9AA21E210020B0
:102EA000FDF71CFF9A48006800280FDA93A21E2144
:102EB0005020FDF713FF0C20052300909448006874
:102EC00042421E215F20FDF7BFFE0DE08CA21E21B5
:102ED0005020FDF703FF0C20052300908C481E2195
:102EE00002685F20FDF7B0FE8AA228210020FDF7CE
:102EF000F5FE8AA228214420FDF7F0FE88A22821B1
:102F00005A20FDF7EBFE87480068642190FBF1F43E
:102F10000C2002232246282100903720FDF794FE42
:102F200080480068642190FBF1F201FB12040C2040
:102F300002232246282100904E20FDF785FE794885
:102F40000068642190FBF1F201FB12000A2807DA05
:102F50000C2002230022282100904820FDF774FE57
:102F60007148007820B971A228216720FDF7B6FECC
:102F70006D480078012804D16DA228216720FDF753
:102F8000ADFE6CA232210020FDF7A8FE4248007879
:102F900028B96AA232212820FDF7A0FE1CE03E4895
:102FA0000078012805D166A232212820FDF796FE7F
:102FB00012E039480078022805D162A23221282087
:102FC000FDF78CFE08E034480078032804D15EA2A7
:102FD00032212820FDF782FEFDF756FD38BD2DE990
:102FE000F04F87B04F480068A0F5397040000321CA
:102FF00090FBF1FABAF1000F01DA4FF0000ABAF1D2
:10300000640F01DD4FF0640A4148006801F0F9FBEC
:1030100007464E4A4E4B01F05BFC054601F0C2FBF1
:103020008146B9F1000F01DAC9F1000932480068A0
:1030300001F0E7FB0546454A454B01F049FC0746D0
:1030400001F0B0FB0446002C00DA644241480078ED
:1030500008B9012000E000203E4908703E48007891
:1030600001287FD13D48006802F09EF805463C48A3
:10307000006802F099F80646002002900390049040
:10308000059000902B4632460190064801786AE090
:103090001C0100206A00002000000020535045451C
:1030A000440000001C00002052580000680000206E
:1030B0004C59000010000020140000204B4559001E
:1030C000640000205A000000690000205900000040
:1030D0004C000000700000204D0000007400002033
:1030E00052000000780000207C000020456E636FD5
:1030F0004C45465400000000200000202D00000038
:103100002B000000456E636F524947485400000091
:1031100024000020564F4C54414745002E0000002B
:103120005600000058000020020000204F2D4E00E5
:103130004F4646004D4F44452D0000004150500081
:103140005053320043434400454C45009A999999A5
:103150009999F13F140100206B0000200800002025
:103160000400002006E056A000F0BCF900205C49F5
:10317000087026E05B480078B8B95B490968A1F29D
:10318000EE2001F03EFB0546584A594B01F0A0FBEA
:10319000074601F007FB834609F0FF02E1B2534600
:1031A000009054A000F09EF90BE056480068009093
:1031B00055480368554802684B48016854A000F020
:1031C00091F907B0BDE8F08F10B54F48006802F0E4
:1031D00027F80446012100F0E7F84A48006802F0A9
:1031E0001FF80446022100F0DFF80321002000F060
:1031F000DBF8032000F027F949490870002049490D
:10320000087011E000BF4848008810F0400FFAD065
:10321000464844490978405C4349091D08804148B3
:103220000078401C3F4908703E4800783C490978C6
:103230008842E7DB10BD10B53DA200210846FDF72E
:103240004DFD40A20A210020FDF748FD41A21421B6
:103250000020FDF743FD4348007828B9AFF224125F
:103260001E213220FDF73AFD3E480078012805D1A5
:10327000AFF234121E213220FDF730FD39480078BC
:10328000022805D1AFF244121E213220FDF726FD9F
:1032900034480078032805D1AFF254121E213220A1
:1032A000FDF71CFD30A228210020FDF717FD32A2FA
:1032B00032210020FDF712FDFDF7E6FB10BD0000F6
:1032C0007B4325643A25643A25643A25643A2564AB
:1032D0003A25643A25643A25643A25647D24000041
:1032E0006B000020140100204C0000207B14AE472E
:1032F000E17AC43F7B4125643A25643A25643A2546
:10330000647D2400240000202000002058000020BC
:103310007B4225643A25643A25643A25647D24007D
:10332000160100201501002000380140800A00200D
:103330005475726E20526967687420576865656CB1
:1033400000000000544F2053656C656374204D6F7E
:103350006465000043757272656E74204D6F64651C
:10336000204973000000002050726573732055736C
:103370006572204B65790000544F20456E642053E0
:10338000656C656374696F6E0000000030B50346BC
:103390001C788C545D78541C0D559D78941C0D55EB
:1033A000DD78D41C0D5530BD13B50C460A2C00DC5D
:1033B00004B91CBD0B2C43D2DFE804F042060C120A
:1033C000181E242A30363C00012244496846FFF783
:1033D000DDFF35E0052241496846FFF7D7FF2FE0C2
:1033E00009223E496846FFF7D1FF29E00D223B49FB
:1033F0006846FFF7CBFF23E0112238496846FFF704
:10340000C5FF1DE0152235496846FFF7BFFF17E0ED
:10341000192232496846FFF7B9FF11E01D222F49F2
:103420006846FFF7B3FF0BE021222C496846FFF7FF
:10343000ADFF05E0252229496846FFF7A7FF00BF39
:1034400000BF00BFB5E701460A2900DC09B900202A
:1034500070472420214A10700B293CD2DFE801F08C
:103460003B060B10151A1F24292F350005201B4A77
:1034700050710620ECE70920184A50720A20E7E74D
:103480000D20164A50730E20E2E71120134A5074A3
:103490001220DDE71520114A50751620D8E71920B3
:1034A0000E4A50761A20D3E71D200C4A50771E2072
:1034B000CEE72120094A82F821002220C8E72520F2
:1034C000064A82F825002620C2E72920034A82F80E
:1034D00029002A20BCE70020BAE70000800A00206B
:1034E000704700000FB4044910B503AA029800F019
:1034F00003F910BC5DF814FB840000202DE9F041B5
:103500000E460446002020622046E168884730B31A
:10351000252805D0D4E901219047206A401CF2E714
:10352000E168204600278847050018D0A5F1410032
:10353000192802D820354FF4006732462946204624
:103540002760FCF70DFE40B1012804D0F61D26F0DF
:1035500007060836D8E7361DD6E72846DAE7206A98
:10356000BDE8F0812DE9F041064600241068752978
:10357000314616A511D0AFF30080002803DAC0F160
:10358000000013A507E031688A0701D511A502E004
:10359000490704D510A5012401E0AFF30080002104
:1035A0000A2306F1240707E0B0FBF3F203FB120045
:1035B000303078541046491C0028F5D123462A465D
:1035C0003046BDE8F04100F03AB8000000000000CD
:1035D0002D0000002B000000200000004FF0000232
:1035E0000429C0F0128010F0030C00F09980CCF197
:1035F000040CBCF1020F18BF00F8012BA8BF20F883
:10360000022BA1EB0C0100F08BB85FEAC17C24BF58
:1036100000F8012B00F8012B48BF00F8012B704780
:10362000704770477047704710B500F09FF800680A
:1036300010BD10B5044600F099F8046010BD2DE9E6
:10364000F0470D4699469246044600F12408016869
:10365000880604D5E06921F01001216000E0012016
:10366000A84202DDA0EB050700E00027A16907EBF7
:10367000050202EB0900A1EB0000A0612078C00662
:1036800002D42046AFF30080002608E0D4E90121EF
:103690001AF806009047206A401C761C20624E45AE
:1036A000F4DB2078C0060AD52046AFF3008006E0A0
:1036B000D4E9012130209047206A401C2062381E46
:1036C000A7F10107F4DC07E0D4E9012118F80500AF
:1036D0009047206A401C2062281EA5F10105F3DCFA
:1036E0002046AFF300802078000602D50220BDE816
:1036F000F0870120FBE70000074B70B50D467B44C7
:1037000000F03DF80446284600F04CF810B14FF0A8
:10371000FF3070BD204670BD79CFFFFF4FF0000233
:1037200000B5134694469646203922BFA0E80C50B7
:10373000A0E80C50B1F12001BFF4F7AF090728BF92
:10374000A0E80C5048BF0CC05DF804EB890028BF0E
:1037500040F8042B08BF704748BF20F8022B11F037
:10376000804F18BF00F8012B7047000000487047D9
:10377000AC0A002001694A1C02610878704700B554
:103780008FB0CDE901310021059105497944CDE99A
:10379000031011466846FFF7B1FE0FB000BD0000F0
:1037A000E5FFFFFF007B00F0800070470048704796
:1037B000AC0A00207546FFF7F9FFAE4605006946E2
:1037C000534620F00700854618B020B5FCF7F2FC00
:1037D000BDE820404FF000064FF000074FF0000812
:1037E0004FF0000B21F00701AC46ACE8C009ACE893
:1037F000C009ACE8C009ACE8C0098D467047044672
:10380000AFF300802046FCF7BDFC490050EAC12020
:1038100018BF04204A0D18BF40F0010040F2FF72AB
:10382000B2EB515F08BF40F00200012808BF05203D
:1038300070472DE9F0414F1E00EBC7010446D1E966
:10384000000115461E4637F006020DD02A463346C3
:1038500001F03EF87F1E04EBC703D3E9002300F01C
:103860008DFD37F00602F1D1022F25D0042F13D0A1
:10387000062F18BFBDE8F0812A46334601F028F82C
:10388000D4E90A2300F07AFD2A46334601F020F8F5
:10389000D4E9082300F072FD2A46334601F018F8F7
:1038A000D4E9062300F06AFD2A46334601F010F8F9
:1038B000D4E9042300F062FD2A46334601F008F8FB
:1038C000D4E9022300F05AFD2A46334601F000F8FD
:1038D000D4E90023BDE8F04100F050BD024A0020C9
:1038E000110701F0ACBE000001FDFFFF2DE9F04D16
:1038F00016460F460546020094B01C4621F00041D2
:1039000023F0004014BF4FF0010C4FF0000C0CEB03
:10391000470CFE4B0CEB03084FEA630CE0452DD33C
:103920005FEA060818BF4FF0010808EB4408984406
:10393000F74B984522D3F74B50EA060C02D09F4232
:1039400005D14AB914B000201946BDE8F08D002A0F
:1039500008BF4FF0000C01D04FF0010C0CEB4703F7
:1039600013F5001F0AD8002E14BF4FF0010C4FF0C2
:10397000000C0CEB440313F5001F08D914B03246B9
:10398000234628463946BDE8F04D00F0F7BCDFF885
:1039900088B34FF0000A002FB8BF584523DADF4B39
:1039A0009842A8BF4FF0020A1DDADA4B83421ADCB4
:1039B000DB4B03EB2053142B08DDC3F1340C26FA48
:1039C0000CF303FA0CFCB4450DD108E05EB9C3F169
:1039D000140C20FA0CF303FA0CFC844503D103F019
:1039E0000103C3F1020A51EA020321D1002C1FDABC
:1039F000002F18BFBAF1020F02D0BAF1010F0BD09D
:103A00000220FFF716FE14B00022BDE8F04D134669
:103A10001046C04900F06EBD0220FFF70AFE14B048
:103A20002A463B46BDE8F04D0020BA4900F062BD91
:103A300033006DD1584525D107F1804010F5801035
:103A400001BF002A0020B34914B008BFBDE8F08DC3
:103A5000B048884207DC002CA1BF1846214614B0AC
:103A6000BDE8F08D07E0002CBFBF184684F0004190
:103A700014B0BDE8F08DAB497944D1E9000114B030
:103A8000BDE8F08DDFF88CC2604526D1002C1FDA2E
:103A900019B1594513D1DAB90AE0002A40F0DA82A7
:103AA0009D4A394614B0002062F31E01BDE8F08D36
:103AB0000020394614B060F31E01BDE8F08D07DA2E
:103AC00014B03B46BDE8F04D0020614600F012BD49
:103AD00014B010463946BDE8F08D594518DAB4F1F6
:103AE000804F0DD0A4F10053B3F1FF5310D13B1E12
:103AF0000EDB14B01046BDE8F04D194600F0E6BBF1
:103B00003B4614B01046BDE8F04D194600F0E0BE4B
:103B100027F00043A2BBE1B1594538D1002F06DDA3
:103B2000002CA1BF0020594614B0BDE8F08D002F35
:103B300001DD002C1FDB002F16DA002C14DBBAF19C
:103B4000010F4FF0000014BF7349774914B0BDE86E
:103B5000F08DBAF1020F18BF002F0CD0BAF1010F8F
:103B600009D1002F07DA0CE0002FB8BF002C0EDAC5
:103B7000BAF1010F05D0002014B00146BDE8F08D68
:103B800005E014B000204FF00041BDE8F08D4FF08B
:103B9000010C0CEBE7720D9252EA0A020BD0634A59
:103BA00090427DDD624B634A984216DD8A420EDB0D
:103BB000002C1CDB2CE00120FFF73BFD14B00022A1
:103BC000BDE8F04D13461046114600F093BC514835
:103BD000884202DC002C0ADC1AE0914202DA002C56
:103BE00016DA04E04B4B99421EDD002C10DD02205A
:103BF000FFF71FFD40F2013200204FF0E04101F0DD
:103C00001EFD454A14B061F31E021146BDE8F08D59
:103C10000220FFF70EFDFFF761FE3E4A14B061F38C
:103C20001E021146BDE8F08D00222846394601F0FB
:103C300075F8054688466FF0010201F000FD4FF06F
:103C400055323D4B00F078FF2A46434600F040FED7
:103C500000223A4B00F070FF07468B462A46434647
:103C60001046194600F034FE3A465B4600F030FE3E
:103C700009910C904FF0C042314B2846414600F06C
:103C800027FE07468B462F4A2D4B09990C9800F0CA
:103C90001FFECDE901102C4A2C4B2846414600E07E
:103CA00019E000F015FEDDE9013201F037F83A467F
:103CB0005B460591089000F061FB002588463A4676
:103CC0005B46284601F02AF8059B089A00F034FF6D
:103CD000024600F076B90020B1F5801F07DA3522E0
:103CE0002846194601F0ABFC05466FF0340000EBA6
:103CF0002150A0F2FF300190C1F3130040F07F612A
:103D000041F0405102911249884223E0FFFF1F0019
:103D1000FFFF0F000000F03F0000F07F0000404375
:103D200001FCFFFF3C2700000000F0FF0000E04125
:103D30000000F043FFFFEF3F5555D53F0000E03F47
:103D40004715F73FFE822B6544DF5DF80BAE543E0E
:103D50008E980300D8BF4FF0000B0EDDFE49814264
:103D6000C8BF4FF0010B08DC01984FF0000B401C5E
:103D700001900298A0F580100290F84802997844CA
:103D800000EBCB000B911090D0E90023284600F007
:103D9000C5FF009010980791D0E9002328460B99A1
:103DA00000F0ECFA02460B460020ED4900F0A2FBC1
:103DB00005910B46024608900799009800F088FD8F
:103DC0000690E848884600277844029900680E90DB
:103DD0004FF0005040EA610000EB8B4000F50021FD
:103DE00010980291D0E900230E9800F097FF2A4620
:103DF0000B9B00F0A1FE3A46434600F069FD0546E4
:103E00000B9138464146029B0E9A00F061FD079BDC
:103E1000009A00F091FE2A460B9B00F07FFF059B65
:103E2000089A00F055FD0B911090069A43461046F3
:103E3000194600F04DFD05460246CB480B46009161
:103E400006217844FFF7F5FC009B2A460291089072
:103E50001046194600F03CFD029B089A00F038FD20
:103E600005460591434638461946069A00F086FAFB
:103E70000B9B109A00F02CFD2A46059B00F07EFA61
:103E80003A464346059108901046194600F020FD39
:103E90000022B64B00910C9000F070FA059B089A36
:103EA00000F06CFA0D463A46B04B384600F036FF4B
:103EB000009B0C9A00F032FF059B089A00F03CFE34
:103EC00011913A460C902B461046414600F000FDF9
:103ED000079100904346069A11990C9800F0F8FC5F
:103EE000804603912B463A460B99109800F0F0FC5F
:103EF0004246039B00F042FA059180460B4602467B
:103F00000799009800F03AFA00200F460546079BF3
:103F1000009A00F003FF4246059B00F00DFE80462C
:103F200009914FF06042924B2846394600F0D0FC90
:103F3000009102908F4A8E4B4046099900F0C8FCD0
:103F4000804603918C4A8D4B2846394600F0C0FCD0
:103F50004246039B00F012FA894A7A4402EBCB03F3
:103F6000D3E9002300F00AFA06900391019800F0CB
:103F700048FC0746DDE902030591069A009900F026
:103F8000FDF9804A7A4402EBCB0BDBE9002300F019
:103F9000F5F93A46059B00F0F1F9002588463A46C6
:103FA0002846059B00F0BAFEDBE9002300F0B6FED0
:103FB000009B029A00F0B2FE039B069A00F0BCFD43
:103FC0000246002006900D98654FAAF101031843A0
:103FD00001D16D4F069000200B46009030462146DF
:103FE00000F076FC82468B46234630461946009AFE
:103FF00000F094FE2A46434600F06AFC52465B46B7
:1040000000F0BCF906468A462A46434621460098F7
:1040100000F05EFC04460D463246534600F0AEF911
:104020005A4A8B46914226DBABEB020353EA00026D
:1040300010D122462B4600F071FE80460591544A6D
:10404000544B3046514600F099F94246059B00F02A
:104050003DFD30D20220FFF7ECFA40F201320020A1
:104060004FF0E04101F0EBFA0A46394614B062F332
:104070001E01BDE8F08D484B2BF000429A421AD346
:10408000464A0BEB020353EA000208D122462B46B4
:1040900000F044FE3246534600F018FD0BD80220D3
:1040A000FFF7C7FAFFF71AFC0A46394614B062F365
:1040B0001E01BDE8F08D2BF000403949394A01EB73
:1040C00020514FF00008824223DA481C4FF480113F
:1040D00021FA00F05844C0F30A51334AA1F2FF31EB
:1040E0007A44324B1268CB4020EA0303C0F313003A
:1040F00040F4801CC1F114002CFA00F8BBF1000F51
:10410000B8BFC8F100082046294600F007FE044663
:104110000D4622462B463046514600F02FF94FF00F
:10412000000B5A46224B5846059100F0D1FB0090F7
:104130000791204A204B5846059900F0C9FB04918D
:10414000029022462B465846059900F0E7FD32467C
:10415000534600F0F1FC31E07AB60B00AE230000CC
:104160000000F03FEC2300001A230000000008408C
:1041700009C7EE3FFD033ADCF5015B14E02F3EBEBC
:10418000F2210000B82100000000F0BF00009040C4
:10419000FE822B654715973C00CC904000346F3F62
:1041A00001FCFFFF0000E03FD4200000FFFF0F00F4
:1041B000432EE63F396CA80C615C20BE3F4A404B61
:1041C00000F086FB049B029A00F0D8F806468A4667
:1041D000079B009A00F0D2F804460D46079B009A10
:1041E00000F09CFD3246534600F0A6FC06462246EF
:1041F0002B4609911046194600F06AFB8346024699
:1042000030488A460B4605217844FFF712FB5A4690
:10421000534600F05DFB22462B4600F08DFC8246A3
:104220008B46324620462946099B00F051FB324618
:10423000099B00F0A3F80591089000224FF08043FD
:104240005046594600F06AFD0646009152465B46CC
:104250002046294600F03CFB3246009B00F04AF91C
:10426000059B089A00F05AFD22462B4600F056FDA9
:104270000022154B00F060FC0D46044601EB08518E
:104280000815002810DC42462046294601F0D7F9DF
:10429000FFF7BBFA042808BFFFF720FB4246204681
:1042A000294601F0CCF9044606980B4614B0224684
:1042B0003946BDE8F04D00F00BBB0000EF39FAFEC7
:1042C000422EE63F841F00000000F03F2DE9F04140
:1042D00006460F4600F03CFC04000D4618BF0120C6
:1042E000284320F00040C0F17F6000F1E040C00FA3
:1042F0000ED0301C18BF0120384320F00040C0F120
:104300007F6000F1E040C00F04BF0120FFF791F98A
:1043100020462946BDE8F08121F00042A2F160521A
:10432000B2F5801F01F0004328BFD2F17F6C0BD99A
:104330005FEA001C43EAC20242EB507018BF7047AC
:1043400028BF20F001007047B2F5801FBCBF18469F
:1043500070474FEA410C1CF5001F02D2084601F0DD
:1043600086B870B500F05EFB00000089FFF7F6BF6D
:104370004FF00040A0F580007047000010B591EAB2
:10438000030F48BF83F0004300F1D084841A71EB1F
:10439000030C05D2121943EB0C03001B61EB0C015B
:1043A000DFF824E14FEA1154A4EB135C1EEA430F3B
:1043B00018BF9EEA445F73D023EA0E03DCF1200E9F
:1043C00021EA045143F4801332D322FA0CFE10EB9D
:1043D0000E0023FA0CFE41EB0E01CCF1200E03FA85
:1043E0000EFE10EB0E0051F10001B1F5801FCCF173
:1043F000200E32D201EB045112FA0EF2BDE8104049
:1044000058BF7047401C38BF5FEA420218BF704770
:10441000002814BF20F0010041F100014FEA4103E0
:1044200013F5001F38BF7047A1F1C04100F048BB31
:10443000012A43EB0302ACF1200CDCF11F0E32BF6A
:104440004FF0000E23FA0CF310EB030041EB045184
:10445000B4EB115FD0D0A1EB045101F580114908F4
:104460005FEA300001EB04510ED350F1000038BF79
:1044700012FA0EFE08D1BDE81040C9E7401C38BF53
:104480005FEA4202CAD1C3E7BDE810404FEA4103E8
:1044900013F5001F38BF7047A1F1C04100F010BBF9
:1044A0009EEA445F08D011EA5E0FBDE8104004BFE9
:1044B00001F0004100207047BDE8104070B500F0E9
:1044C000B1FA00BF64FBBE3E0000E0FF02494FF0BE
:1044D000000001F082B800BF0000F87F491058BF0B
:1044E000C1F140415B1058BFC3F140438B42EFF331
:1044F000008070472DE9C04130B4DFF8A0C23CEA2B
:10450000111418BF3CEA131400F0EC8081EA030593
:104510001CEA111444EAD57418BF1CEA131500F004
:10452000C780A4EB05044FF0004545EAC12145EAE8
:10453000C32341EA505143EA525304F17F74994234
:1045400004F500344FEAC0204FEAC22208BF90426F
:1045500000F09C804FEA13650FF24016765D4FEA3B
:10456000134506FB05F7C7F1807706FB07F74FEA0F
:10457000D737A7FB03687642C8F58038A7FB06CE7D
:1045800038BFA8F1010807FB08E64FF0000EA6FBB4
:10459000028CE6FB03CEDCF1000CCEF1004E38BFFE
:1045A000AEF1010EA6FB0C584FF000074FF00005CE
:1045B000E6FB0E87A1FB08C6A0FB07CE16EB0E0696
:1045C00045F10005E1FB076515F1E04E7EBFA4F55E
:1045D00080345FEA46066D4116F1800745F100051B
:1045E0004FEA17274FEA066647EA0567A6F1DE4657
:1045F000B6F1805F4FEA15251FD9384624F0010C2B
:1046000005EBC471BCF1FE6F01EB0C1102D8F0BCDC
:10461000BDE8008124425CBF01F5801E9EEAC47F94
:1046200002D4F0BCBDE80081244238D4F0BCA1F132
:10463000C041BDE8004100F043BA4FEAD22242EA4D
:1046400043524FEAD323A7FB02864FEAD02040EA29
:10465000415007FB03661EEA0E0F4FEAD12105FB0E
:10466000026658BFA6EB0056B6EB00564FEA520E54
:104670004EEAC37E18EB0E0E56EB530EBDD518EB6B
:1046800002085E417F1C55F10005B6E74FF4801526
:104690004FF000074FF000064FF00008ADE7F0BC08
:1046A0004FF0000001F1C04101F00041BDE8008180
:1046B00011EA0C1F0CEA131500D00CE013EA0C1FD2
:1046C00000F025804FF00000F0BC81EA030101F00A
:1046D0000041BDE80081F0BCBDE8004181EA030172
:1046E00000F0EEB9F0BCBDE8004170B500F09AF9F9
:1046F000097EFC3E00F007B881EA03014FF000009C
:1047000001F00041704781EA030100F0D9B9F0BC23
:10471000BDE800414FF0000021497047FFFDFBF963
:10472000F7F5F4F2F0EEEDEBE9E8E6E4E3E1E0DEE4
:10473000DDDBDAD8D7D5D4D3D1D0CFCDCCCBCAC856
:10474000C7C6C5C4C2C1C0BFBEBDBCBBBAB9B8B77D
:10475000B6B5B4B3B2B1B0AFAEADACABAAA9A8A870
:10476000A7A6A5A4A3A3A2A1A09F9F9E9D9C9C9B3E
:104770009A999998979796959594939392919190E9
:104780008F8F8E8E8D8C8C8B8B8A8989888887877A
:104790008685858484838382828181800000FF07EF
:1047A0000000F87F4FEA41034FEA5353A3F58063BB
:1047B000D3F11E03C8BFD3F1210C0CDD4FF0004232
:1047C00042EAC12242EA505232FA03FC8CEAE17C0E
:1047D000ACEBE1707047102BC4BF0020704703F5AD
:1047E000787CBCF1FF3F04D06FF0004282EA2100E8
:1047F000704770B500F016F9499224800020704788
:10480000F2E710F0004248BF4042B0FA80F310FADD
:1048100003F10AD0C3F11D0303F580634FEA415051
:1048200002EB035202EBD12170474FF000007047BA
:10483000B0FA80F310FA03F10AD0C3F11D0303F5B7
:1048400080634FEA41504FEA035202EBD121704797
:104850004FF000007047000051EA030C17D41CF51C
:10486000801F58BFBCF5801F00F10680994218BF19
:10487000704708BF9042704707D711F5801F58BF97
:1048800013F5801F19D499427047894270471CF56F
:10489000801F08D5BCF5801FF7D58B4218BF704725
:1048A00008BF824270474FF4001C1CEB410F38BF19
:1048B0001CEB430F01D28B42704770B500F0B2F889
:1048C000922449004FF000514FF08053FFF706BE8D
:1048D000DFF848C170B51CEA111E1EBF1CEA131593
:1048E0009EEA0C0F95EA0C0F00F06F8081EA03043A
:1048F00023EA4C134EEAD47E21EA4C1141F4801194
:1049000043F48013AE44A1FB024CA0FB0365AEF15F
:104910007F7E361955EB0C05A1FB034C4CF10003CF
:10492000A0FB021C16EB0C06654153F10003094283
:1049300018BF46F0010613F4007F0BD14FEA033194
:104940004FEA0530340341EA155140EA16506FF042
:1049500003020AE04FEAC3214FEAC520F40241EA0C
:10496000555140EA56506FF0020202EB2E4201EB25
:10497000025585EACE710AD05FEA440C18BF24F0D4
:10498000004450F1000041F1000120EAD47040F2EF
:10499000FE7C624500D270BDA84214BF4FF0804437
:1049A0004FF04044002E08BF0024BEF1806FA8BF26
:1049B000A1F1C041BDE8704080F282804FF000005C
:1049C00001F1C04101F0004170479EEA0C0F0CEA72
:1049D000131518BF95EA0C0F06D04FF0000081EABE
:1049E000030E0EF0004170BD00F01CF88900013E7E
:1049F00000F007B800F009B84FEA430C5FEA5C5CCE
:104A000008D081EA030100F05BB84FEA410C5FEA8D
:104A10005C5CF6D14FF00000014970470000FF07D1
:104A20000000F87F0EF1020E2EF0030E5EF8046B0C
:104A3000364205D4012A43EB030515F5001F12D8B1
:104A4000012841EB010C1CF5001F0CD80ED14FEAD8
:104A5000D17C15F5001F0CEB4C0C0CF1020C08BFBF
:104A60004CEBD37C04E04FF0080C01E04FEAD37C20
:104A70000CEB4C0526FA05F606F00706B6F1040C19
:104A800006D20EEB860CBDE870404CF0010C60477E
:104A9000DFE80CF0090B02024FF000414FF000007C
:104AA000A1F5002170BD19461046012851EB010403
:104AB00018BFD4F5001484BF002001F0004170BD80
:104AC0000808A0F500114FEA3101704753EA010CC4
:104AD00017D41CF5801F58BFBCF5801F00F106805D
:104AE0008B4218BF704708BF8242704707D713F543
:104AF000801F58BF11F5801F19D48B4270479B420D
:104B000070471CF5801F08D5BCF5801FF7D599426A
:104B100018BF704708BF904270474FF4001C1CEB51
:104B2000430F38BF1CEB410F01D2994270470FB4BD
:104B30000CBC03BCFFF7C1BE91EA030F10B581F0B6
:104B400000413FF523AC83F0004300F0EFB80000D4
:104B50002DE9F04101F5801CBCF5001FC0F2C380B7
:104B60004FEA115C21EA0C510CF1FD0C41F480116B
:104B70005FEA5C0C0CF5C07C01D3400049413DA4C8
:104B8000890241EA905187028E0E0A0CA45D04FB53
:104B900004F602FB06F6C6F14046A4FB0662F60DDB
:104BA00046EA422606FB06F4A4FB01235242C3F167
:104BB000404338BF5B1EA6FB02420024E6FB0324F1
:104BC000D20B42EA4446A6FB0623A1FB02E2A3FB6A
:104BD00007E4A4184FF0000252F10002E3FB014287
:104BE0006442C2F1404E38BFAEF1010EA6FB042371
:104BF0004FF00002E6FB0E32A2FB03464FF000042A
:104C0000B61954F10004E2FB0264A1FB06E6A4FB22
:104C100007E816EB08064FF0000858F10008E4FB1F
:104C200001687642C8F1405838BFA8F10108A2FBDC
:104C300006E4A3FB08E52D194FF0000454F100042D
:104C4000E2FB0854A1FB05E6A7FB04E818EB060805
:104C50004FF0000656F10006E1FB048618F120052E
:104C600056F10006A809A8F11B08B10908F03F0891
:104C7000B8F10A0F40EA86601CD901EB0C51BDE87F
:104C8000F08100BFFCF5EEE8E2DDD8D3CFCBC7C39F
:104C9000C0BDB9B6B4B1AEACA9A7A5A3A19F9D9B59
:104CA0009A9896959392908F8D8C8B89888786851C
:104CB00084838281A0FB006800FB01F208EB4208BC
:104CC000B8EB872807D5341858EB0104D5D5401C1C
:104CD00051F10001D1E7341A78EB0104CDD4401E24
:104CE00071F10001C9E75FEA4C0C5FEA9C5C0DD1F1
:104CF00005D34FF0000001F00041BDE8F081BDE8B0
:104D0000F04170B5FFF78EFE6DDBFFBEBDE8F041F0
:104D10004FF00000004970470000F87F10B591EA9D
:104D2000030F48BF83F000433FF530AB841A71EBAB
:104D3000030C07D212198CF0004C43EB0C03001B40
:104D400061EB0C01DFF8A4E14FEA1154A4EB135C12
:104D50001EEA430F18BF9EEA445F00F0B08023EACA
:104D60006E03524221EA0451C3EB6E0338BF5B1E4F
:104D7000DCF1200E25D322FA0CFE10EB0E0043FAD4
:104D80000CFE41EB0E01CCF1200E03FA0EFE10EBEF
:104D90000E0051F10001CCF1200E29D412FA0EF2CE
:104DA00001EB0451BDE8104058BF7047401C1CBFC8
:104DB000B2F1004F704700280CBF491C20F00100E1
:104DC000704712EB020E43EB030218BF4FF0010EC7
:104DD0004EEA4202ACF1200CDCF11E0E54D943FA2B
:104DE0000CFE10EB0E0051F1FF31CCF11E0ED5D5AB
:104DF0000EF1010E12FA0EFE404141EB010101EBF2
:104E0000445C5FEA5C5C10D910EBDE7001EB04518E
:104E100038BFBEF1004FBDE8104018BF70470028F2
:104E20000CBF491C20F00100704730D24FEAD42C4F
:104E300011F5001124F400641BD0B1FA81F20B3A91
:104E4000A41AA41ED2F12003914030FA03F31943AF
:104E5000904001EBCC71002C01EB0451BDE81040F7
:104E6000A8BF704701F1C0414FF0000001F00041C0
:104E70007047B0FA80F310FA03F100D110BDE41AC4
:104E8000173C4805C90AE4E701EB045110BD49107D
:104E900001EB0451BDE810404FEA300002E04FF052
:104EA000000170474A0008BF0042F8D0B2F5001F69
:104EB00028BF704701F000414FF0000070479EEAA4
:104EC000445F07D011EA5E0FBDE8104004BF002127
:104ED00000207047BDE8104070B5FFF7A3FD00BF8C
:104EE00040DFF63E83F00041104670470000E0FFCF
:104EF00043004FEAD30C4FEA3C0C43401FBF40072E
:104F00000CF1605113F0FE4F70471CF0006F03D19D
:104F100000200CF0004170470CF0004343EA507051
:104F200010B540EACC0000F05CFA00BF000000922F
:104F30004FEA0001FFF7C4BD4FF000414FF0000001
:104F4000A1F500217047000090EA010F48BF81F0F1
:104F5000004100F1D482421A3CBF801A89184FEAFE
:104F6000D0524FF07F4C1CEA410FA2EBD15318BF37
:104F70009CEA026F00F03B804FF0004C4CEA0020AE
:104F80004CEA012121FA03FC10EB0C0C1ED202F1B9
:104F9000FF325FEA1C2040EBC25038BF70471CF064
:104FA0007F0F4FEA400C18BFBCF17F4F38BF7047EE
:104FB000C3F12003994008BF20F00100BCF17F4FEE
:104FC00038BF7047A0F1C04000F051BA4FEA3C0032
:104FD000000A40EBC25028BF1CF0FF0F4FEA400C04
:104FE000E6D018BFBCF17F4F38BF7047EAE79CEAB4
:104FF000026F05D010EA5C0F08BF00F00040704758
:1050000010B500F0EEF900BF64FBBE3E401058BF83
:10501000C0F14040491058BFC1F140418142EFF317
:10502000008070474FF47F0C1CEAD0121EBF1CEAB0
:10503000D11392EA0C0F93EA0C0F00F0858090EAEE
:10504000010F48BF42F4807240F4000C41F40000AC
:105050002CF07F4120F07F4000B58142A2EB03029B
:105060000FF2081CACEB504EC0F100009EF800E0BF
:105070004FEA4E0E00FB0EFC38BF49004FEA2C1CD5
:1050800002F5FA020CFB0EF34FEACE1E4FEA112C8A
:105090004FEAC1210EEB635E42EB22420EFB0CFC99
:1050A0004FEA1C5300FB03114FEA112C4FEA013168
:1050B0000EFB0CFC4FEADC4C00FB0C11C14228BF7C
:1050C00009184CEB03335DF804EB10EB410143EBA3
:1050D000C250B2F57C0F38BF704729D512F0F00FDF
:1050E0001CBF00F1C04000F0004070470081828387
:1050F0008485868788898B8C8D8E8F9192939596E7
:1051000097999A9C9D9FA0A2A3A5A7A8AAACAEB070
:10511000B2B3B5B7B9BCBEC0C2C5C7C9CCCED1D475
:10512000D7D9DCDFE2E6E9ECF0F3F7FAFE000000A5
:105130004FEA400C0CF1807CBCF17E4F28BF7047D9
:10514000B0F1C04000F093B990EA010F0CEAD1131E
:1051500048BF42F48072624538BF634507D213F4FA
:105160007F0F16D080EA010000F00040704710B5B4
:1051700000F037F9097EFC3E00F005B880EA010036
:1051800000F00040704780EA010000F0004000F0AD
:105190006EB912F47F0F04BF0248704780EA010025
:1051A00000F065B90000C07F41000B0ED3F19E02F4
:1051B00008D950F400034FEA032323FA02F048BF52
:1051C0004042704710B500F00CF900BF49922480AE
:1051D000002070476FF0004282EA20007047000014
:1051E000C10DD1F19E0206DB4FEA002343F00043DC
:1051F00023FA02F07047004207D54FEA4001B1F1AF
:10520000FE4F02D24FF00000704710B500F0E9F8F1
:1052100049922480002070476FEA20007047000008
:1052200010F0004148BF4042B0FA80F310FA03F298
:10523000C3F19D030BD051EAC35101EB1220530679
:1052400038BF704700F1010008BF20F0010070472F
:10525000B0FA80F310FA03F2C3F19D030AD0D90526
:1052600001EB1220530638BF704700F1010008BF60
:1052700020F001007047000050EA010C00F113809B
:105280001CF5000F58BFBCF5000F01D488427047D1
:1052900007D710F5000F58BF11F5000F15D488423D
:1052A0007047894270471CF5000F04D5BCF5000F0C
:1052B000F7D5814270474FF0807C1CEB400F38BF20
:1052C0001CEB410F01D28142704710B500F089F804
:1052D000922449004FF000504FF08051FFF796BEE6
:1052E0004FF47F0C1CEAD0121EBF1CEAD11392EAC5
:1052F0000C0F93EA0C0F00F0478090EA010F48BFB3
:1053000042F480724FF0004C4CEA00204CEA01213C
:1053100002EB0302A0FB0113A2F50002002918BF53
:1053200043F001035B0028BF4FEA330342EB224204
:105330005FEA132C4CEBC2502EBFBCEB436FB2F5AF
:105340007C0F70474FEA036CBCF1004F08BF20F0A0
:105350000100B2F57C0F38BF70470BD582F0FF0219
:1053600012F5803FC8BF704700F1C040D8BF00F0C1
:105370000040704700F5000C5FEA4C0C48BF7047D6
:10538000B0F1C04000F073B890EA010F0CEAD113FD
:1053900048BF42F48072624538BF634504D280EA58
:1053A000010000F00040704710B500F01AF800BF8F
:1053B0008900013E00F007B800F009B85FEA410C2F
:1053C0005FEA1C6C08D080EA010000F050B85FEA88
:1053D000400C5FEA1C6CF6D14FF00040A0F5800055
:1053E00070470EF1020E2EF0030E5EF8044B2442BD
:1053F00004D44FEA4102B2F17F4F11D84FEA400383
:10540000B3F17F4F0CD80ED14FEAD07CB2F17F4F71
:105410000CEB4C0C0CF1020C08BF4CEBD17C04E003
:105420004FF0080C01E04FEAD17C0CEB4C0324FA5E
:1054300003F404F00704B4F1040C06D20EEB840C60
:10544000BDE810404CF0010C6047DFE80CF00708A5
:1054500002024FF00040A0F5800010BD0846420057
:1054600018BFD2F1807288BF00F0004010BDFF214C
:1054700041EAD050C005704751EA000C00F113809A
:105480001CF5000F58BFBCF5000F01D481427047D6
:1054900007D711F5000F58BF10F5000F15D4814242
:1054A0007047894270471CF5000F04D5BCF5000F0A
:1054B000F7D5884270474FF0807C1CEB410F38BF16
:1054C0001CEB400F01D28842704780EA010081EA5C
:1054D000000180EA0100FFF7F8BE80F0004090EA8A
:1054E000010F7FF538AD81F0004100F008B80000F1
:1054F00090EA010F48BF81F000413FF52CAD421A00
:1055000004D882F00042A0EB020011444FEAD052CE
:105510004FF07F4C1CEA410FA2EBD15318BF9CEA1D
:10552000026F4AD04FF0004C4CEA00204CEA0121B7
:1055300021FA03FCB0EB0C0C0FD412F0FE0F36D0A6
:105540005FEA4C001DD5001240EBC25038BF7047D7
:105550001CF03F0F18BF70470BE0A2F101025FEA99
:105560001C2040EBC25038BF70471CF07F0F18BFA3
:105570007047C3F12003994014BF401E20F0010082
:10558000704780084FEA122308BF7047B0FA80FCCA
:10559000A2EB0C02CCF1280C60FA0CF093EA122F6B
:1055A00004BF00EBC25070474FEAC3707047130A44
:1055B0005FEADC1008BF7047F6E79CEA026F04D090
:1055C00010EA5C0F08BF0020704710B5FFF709FF15
:1055D00040DFF63E81F0004070470CF00F03092BCE
:1055E00008BF082000F059800A2B0BD0082B18BFE9
:1055F000704708BF1CF0400F0AD04FF000004FF07A
:10560000000170471CF0400F18BF4FF0004070477A
:105610001CF0100F08D020F0704300F07F4242EAE7
:10562000D3014FEA4370704700F0604021F07F42A1
:1056300042EA000201F07F4040EA727070474FF08A
:10564000FF0C4CF4E06C1CEA11531CBF9CEA030CE9
:105650009445C2BFDA4201EB02517047002B0DD0D6
:10566000BCF1000F0FD0002A01F00041A4BF41F0AF
:10567000E04141F07F614FF00000704701F00041D0
:105680004FF00000704750EA01334FF09B0C18BFF9
:105690004CF0806C7EF41AAF70471CF4801F11D060
:1056A0001CF4E02F03D06FEACC31490070474FF073
:1056B0004050EFF3008222F0704242EA000282F38F
:1056C000008870474FF000007047000000000000A5
:1056D000000000000000000000003F40000000004B
:1056E00000000000300040003000400000000900D1
:1056F0000BC03D000BC03D00090018C024407FE0F6
:10570000224031800000180024C01B000D80324070
:10571000018003801C4027401C800740004010008F
:105720006000000000000000000000000000000019
:105730001F80204040200000402020401F800000AB
:105740000000090006001F80060009000000040098
:1057500004003F800400040000000010006000000E
:105760000000000000000400040004000400040025
:1057700000000000004000000000000000000020C9
:1057800001C006003800400000001F80204020407B
:1057900020401F800000000010403FC0004000007B
:1057A000000018C021402240244018400000108012
:1057B0002040244024401B80000002000D00110006
:1057C0003FC0014000003C8024402440244023800E
:1057D00000001F802440244034400380000030003B
:1057E000200027C03800200000001B8024402440F7
:1057F00024401B8000001C0022C0224022401F8049
:105800000000000000000840000000000000000050
:1058100000000460000000000000000004000A0016
:10582000110020804040090009000900090009001A
:10583000000000004040208011000A000400180011
:10584000200023402400180000001F802040274033
:1058500029401F400000004007C039000F0001C070
:10586000004020403FC0244024401B8000001F8097
:105870002040204020403080000020403FC0204099
:1058800020401F80000020403FC024402E4030C0F8
:10589000000020403FC024402E00300000000F00D8
:1058A0001080204022403380020020403FC004008E
:1058B00004003FC02040204020403FC02040204006
:1058C00000000060202020203FC020002000204059
:1058D0003FC024400B0030C0204020403FC020404B
:1058E0000040004000C03FC03C0003C03C003FC03F
:1058F000000020403FC00C4023003FC020001F801C
:105900002040204020401F80000020403FC0244015
:105910002400180000001F802140214020E01FA02B
:10592000000020403FC02440260019C0004018C09D
:1059300024402440224031800000300020403FC0FD
:1059400020403000000020003F80004000403F80A9
:10595000200020003E0001C0070038002000380071
:1059600007C03C0007C038000000204039C00600D6
:1059700039C0204000002000384007C038402000D7
:105980000000304021C02640384020C00000000008
:1059900000007FE0402040200000000070000C006C
:1059A0000380004000000000402040207FE0000015
:1059B0000000000020004000200000000000001057
:1059C0000010001000100010001000000000400047
:1059D000000000000000000002800540054003C0F8
:1059E000004020003FC0044004400380000000004D
:1059F000038004400440064000000000038004408F
:105A000024403FC0004000000380054005400340A3
:105A10000000000004401FC024402440200000007B
:105A200002E0055005500650042020403FC00440CD
:105A3000040003C000400000044027C000400000F4
:105A4000000000100010041027E0000000002040BB
:105A50003FC00140070004C00440204020403FC038
:105A600000400040000007C0040007C0040003C05D
:105A70000000044007C00440040003C000400000D0
:105A800003800440044003800000041007F0045029
:105A9000044003800000000003800440045007F02D
:105AA0000010044007C00240040004000000000091
:105AB00006400540054004C00000000004001F80AF
:105AC000044000400000040007800040044007C07C
:105AD00000400400070004C0018006000400060026
